:020000040800F2
:10000000008000200D0100085D0100085D0100086E
:1000100000000000000000000000000000000000E0
:100020000000000000000000000000005D0100086A
:1000300000000000000000005D0100085D010008F4
:100040005D0100085D0100085D0100085D01000818
:100050005D0100085D0100085D0100085D01000808
:100060005D0100085D0100085D0100085D010008F8
:100070005D0100085D0100085D0100085D010008E8
:100080005D0100085D0100085D0100085D010008D8
:100090005D0100085D0100085D0100085D010008C8
:1000A0005D0100085D0100085D0100085D010008B8
:0C00B0005D0100085D0100085D01000812
:1000BC0010B5064C2378002B07D1054B002B02D032
:1000CC00044800E000BF0123237010BD0000002095
:1000DC0000000000B0010008044B10B5002B03D049
:1000EC000349044800E000BF10BDC04600000000FA
:1000FC0004000020B001000880B500AFFEE700004E
:10010C000D4885460D480E490E4A002302E0D4588E
:10011C00C4500433C4188C42F9D30B4A0B4C002343
:10012C0001E013600432A242FBD300F012F800F09D
:10013C0015F8FFF7E1FFFEE700800020000000202B
:10014C0000000020D0010008000000201C0000204E
:10015C00FEE780B500AFC046BD4680BD70B5002639
:10016C000C4D0D4C641BA410A64209D1002600F0C6
:10017C0019F80A4D0A4C641BA410A64205D170BD97
:10018C00B300EB5898470136EEE7B300EB589847AD
:10019C000136F2E7C8010008C8010008C8010008D0
:1001AC00CC010008F8B5C046F8BC08BC9E467047A8
:0C01BC00F8B5C046F8BC08BC9E46704771
:0401C800E500000846
:0401CC00BD0000086A
:040000050800010DE1
:00000001FF
